{
  "contractName": "Sum",
  "abi": [
    {
      "constant": true,
      "inputs": [],
      "name": "result",
      "outputs": [
        {
          "name": "",
          "type": "uint256"
        }
      ],
      "payable": false,
      "stateMutability": "view",
      "type": "function"
    },
    {
      "constant": false,
      "inputs": [
        {
          "name": "_nums",
          "type": "uint256[]"
        }
      ],
      "name": "exec",
      "outputs": [],
      "payable": false,
      "stateMutability": "nonpayable",
      "type": "function"
    }
  ],
  "bytecode": "0x608060405234801561001057600080fd5b506101bc806100206000396000f3fe60806040526004361061004c576000357c0100000000000000000000000000000000000000000000000000000000900463ffffffff1680636537214714610051578063b35dcce71461007c575b600080fd5b34801561005d57600080fd5b50610066610141565b6040518082815260200191505060405180910390f35b34801561008857600080fd5b5061013f6004803603602081101561009f57600080fd5b81019080803590602001906401000000008111156100bc57600080fd5b8201836020820111156100ce57600080fd5b803590602001918460208302840111640100000000831117156100f057600080fd5b919080806020026020016040519081016040528093929190818152602001838360200280828437600081840152601f19601f820116905080830192505050505050509192919290505050610147565b005b60005481565b6000808190555060008090505b815181101561018c57818181518110151561016b57fe5b90602001906020020151600054016000819055508080600101915050610154565b505056fea165627a7a723058201c74cc084b7af38b6618c2b2077045ddde0ee2eae69c80d20dddc65c2b6808500029",
  "source": "pragma solidity >0.4.99 <0.6.0;\n\ncontract Sum {\n  uint256 public result;\n  function exec(uint256[] memory _nums) public {\n    result = 0;\n    for(uint i=0; i<_nums.length; i++) {\n      result = result + _nums[i];\n    }\n  }\n}",
  "sourcePath": "/Users/nakajo/work/ethereum-test/arrays-contract/contracts/Sum.sol",
  "compiler": {
    "name": "solc",
    "version": "0.5.0+commit.1d4f565a.Emscripten.clang"
  },
  "schemaVersion": "3.0.6",
  "updatedAt": "2019-04-22T12:00:59.366Z",
  "devdoc": {
    "methods": {}
  },
  "userdoc": {
    "methods": {}
  }
}